S00D00006C61625F382E7372656351
S11300000C9434000C9451000C9451000C94510045
S11300100C9451000C9451000C9451000C94510018
S11300200C9451000C9451000C9451000C94510008
S11300300C9451000C9451000C9451000C945100F8
S11300400C9451000C9451000C9451000C945100E8
S11300500C9451000C9451000C9451000C945100D8
S11300600C9451000C94510011241FBECFEFD8E022
S1130070DEBFCDBF15E0A0E0B1E0ECE3F3E202C0E7
S113008005900D92A835B107D9F725E0A8E5B5E0AC
S113009001C01D92A136B207E1F70E9432040C940C
S11300A09C110C9400000F931F93CF93DF93D82FD0
S11300B0C62F142F052F61E08AE20E945F0F60E0D3
S11300C080E00E945F0F60E08D2F0E945F0F60E070
S11300D080E00E945F0F60E08D2F0E945F0F61E05F
S11300E08BE20E945F0F60E080E00E945F0F60E09F
S11300F08C2F0E945F0F60E080E00E945F0F60E041
S11301008C2F0E945F0F61E08CE20E945F0F60E021
S1130110802F0E945F0F60E0812F0E945F0FDF91AC
S1130120CF911F910F9108950F932C7F30E0220FF0
S1130130331F220F331F220F331F06950695069592
S1130140202B487FF901F42BAF0170E090E00E946E
S113015053000F910895549A5C9A2FEF89E698E121
S1130160215080409040E1F700C000005C982FEFE0
S113017089E698E1215080409040E1F700C00000FA
S11301805C9A2FEF89E698E1215080409040E1F796
S113019000C0000061E081E00E945F0F2FEF82E564
S11301A097E0215080409040E1F700C0000061E0FA
S11301B081E10E945F0F2FEF89E698E12150804092
S11301C09040E1F700C0000061E081EB0E945F0F06
S11301D060E081E00E945F0F60E08CE20E945F0FAC
S11301E060E08DE20E945F0F61E082EB0E945F0F8E
S11301F060E081E00E945F0F60E08CE20E945F0F8C
S113020060E08DE20E945F0F61E083EB0E945F0F6C
S113021060E081E00E945F0F60E08CE20E945F0F6B
S113022060E08DE20E945F0F60E081E00E945F0F5A
S113023060E08CE20E945F0F60E08DE20E945F0F3D
S113024061E084EB0E945F0F60E087E00E945F0F33
S113025061E080EC0E945F0F60E082EA0E945F0F21
S113026060E082E00E945F0F60E084E80E945F0F1C
S113027061E081EC0E945F0F60E085EC0E945F0FFB
S113028061E082EC0E945F0F60E08AE00E945F0FF1
S113029060E080E00E945F0F61E083EC0E945F0FEA
S11302A060E08AE80E945F0F60E08AE20E945F0FCC
S11302B061E084EC0E945F0F60E08AE80E945F0FB7
S11302C060E08EEE0E945F0F61E085EC0E945F0F9C
S11302D060E08EE00E945F0F61E080E20E945F0FA9
S11302E061E086E30E945F0F60E088EC0E945F0F8C
S11302F061E08AE30E945F0F60E085E00E945F0F87
S113030061E08AE20E945F0F60E080E00E945F0F7C
S113031060E080E00E945F0F60E080E00E945F0F79
S113032060E08FE70E945F0F61E08BE20E945F0F45
S113033060E080E00E945F0F60E080E00E945F0F59
S113034060E080E00E945F0F60E08FE90E945F0F31
S113035061E080EE0E945F0F60E082E00E945F0F28
S113036060E08CE10E945F0F60E087E00E945F0F15
S113037060E082E10E945F0F60E087E30E945F0F0C
S113038060E082E30E945F0F60E089E20E945F0FF9
S113039060E08DE20E945F0F60E089E20E945F0FDF
S11303A060E085E20E945F0F60E08BE20E945F0FD5
S11303B060E089E30E945F0F60E080E00E945F0FCD
S11303C060E081E00E945F0F60E083E00E945F0FC5
S11303D060E080E10E945F0F61E081EE0E945F0FA8
S11303E060E083E00E945F0F60E08DE10E945F0F98
S11303F060E087E00E945F0F60E086E00E945F0F8C
S113040060E08EE20E945F0F60E08CE20E945F0F6A
S113041060E089E20E945F0F60E08DE20E945F0F5E
S113042060E08EE20E945F0F60E08EE20E945F0F48
S113043060E087E30E945F0F60E08FE30E945F0F3C
S113044060E080E00E945F0F60E080E00E945F0F48
S113045060E082E00E945F0F60E080E10E945F0F35
S113046061E083E10E945F0F8FE39CE90197F1F75C
S113047000C0000061E089E20E945F0F9FEF21EE5F
S113048084E0915020408040E1F700C0000061E02A
S113049086E30E945F0F60E080EC0E945F0F61E0E2
S11304A086E30E945F0F60E080E60E945F0F08957C
S11304B0EC018BE091E00E940010CE010E9400103C
S11304C08DE092E00E940010FFCF0F931F93CF9313
S11304D0DF93CDB7DEB7C95FD1090FB6F894DEBF9D
S11304E00FBECDBF83E191E00E940010CE010196C2
S11304F00E94230A8111FACF8FE391E00E94001039
S113050089E491E00E94001082E791E00E94BA0B16
S1130510882321F08EE791E00E9458028FE391E056
S11305200E94001086E891E00E94001081EA91E0A8
S11305300E940010AE01455B5F4F60E270E0CE01A7
S11305408B960E941D0C882321F083ED91E00E947C
S113055058022D968EAD9FAD2D97892BA9F010E0F2
S1130560EBE2F0E0EC0FFD1FE10FF11D80810E9432
S1130570F80F1F5F212F30E02D968EAD9FAD2D9784
S11305802817390768F3D6CF8BED91E00E9400104D
S11305908FE092E00E94001088E392E00E94BA0B80
S11305A0882321F08EE791E00E9458028FE391E0C6
S11305B00E94001084E492E00E94001060E070E069
S11305C0CB010E94210E882321F081E692E00E9453
S11305D058028FE391E00E9400108AE692E00E94A4
S11305E00010CE01835B9F4F25E8EAE8F3E0DC01CD
S11305F001900D922A95E1F7FC0101900020E9F7A2
S11306003197BF01681B790BAE01455B5F4F0E94B8
S11306100F0D882321F08AE892E00E945802AE016F
S1130620455B5F4F60E070E080E090E00E940F0D5A
S1130630882321F082EB92E00E9458028FE391E03C
S11306400E94001083ED92E00E94001087E093E086
S11306500E94BA0B882321F08EE791E00E94580291
S11306608FE391E00E94001084E492E00E94001065
S113067060E070E0CB010E94210E882321F081E626
S113068092E00E9458028FE391E00E94001084E1FE
S113069093E00E9400108E010E521F4F68E2C801C1
S11306A00E941710C8010E94001082E493E00E9487
S11306B00010F80101900020E9F73197BF01601B99
S11306C0710BAE01455B5F4FC8010E940F0D88237B
S11306D021F08AE892E00E945802AE01455B5F4F28
S11306E060E070E080E090E00E940F0D882321F02C
S11306F082EB92E00E9458028FE391E00E94001086
S113070080E693E00E940010C750DF4F0FB6F894C4
S1130710DEBF0FBECDBFDF91CF911F910F91089522
S1130720CF92DF92EF92FF920F931F93CF93DF93B9
S1130730CDB7DEB7CD50D2400FB6F894DEBF0FBEB2
S1130740CDBF8C012A98299A289A83E191E00E94CE
S11307500010CE0101960E94230A8111FACF8FE383
S113076091E00E9400105B9AC8010E94BA0B882392
S113077021F08FE094E00E945802C8010E94BA0B55
S113078081115FC084E090E00E9474108C010F2EF0
S1130790FDE0CF2ED12CE12CF12CF02DC701B601B8
S11307A00E94210EAE01455D5F4F61E070E0CE0115
S11307B0835F9D4F0E941D0CBE01635F7D4FC80186
S11307C00E94951181E0C81AD108E108F108E9E016
S11307D0CE16D104E104F10409F7F801608170E058
S11307E080E090E00E94210EC8010E940C11D12CDF
S11307F0299A2A98AE01455D5F4F60EE71E0CE0103
S11308008D960E941D0C882321F083ED91E00E94B7
S113081058027E01FDE2EF0EF11C10EAF70142815D
S1130820218100812A9A29986D2D812F0E9494009C
S11308301150F3E0EF0EF11C1111F0CFD394DD2031
S1130840BCF65B98C35FDD4F0FB6F894DEBF0FBEF6
S1130850CDBFDF91CF911F910F91FF90EF90DF906B
S1130860CF900895CF93DF9300D000D01F92CDB7DF
S1130870DEB785E0E6E0F1E0DE01119601900D922D
S11308808A95E1F749815A816B817C818D810E942F
S1130890770F8EE194E00E9400100E944E0F0E9498
S11308A0AB0088E394E00E94001083E494E00E948B
S11308B000100E9465028CE794E00E9400108DE90C
S11308C094E00E94900385EA94E00E94001080E086
S11308D090E00F900F900F900F900F90DF91CF91B9
S11308E00895FF920F931F93CF93DF93C82FD42FB4
S11308F0152F062FF72E88234CF440E050E0BA0160
S113090087E70E947104823040F5CF775A9A0E949B
S11309106F0F5A980E946F0F8C2F0E946A0F8F2DB1
S11309200E946A0F802F0E946A0F812F0E946A0F13
S11309308D2F0E946A0FC03421F0C83421F487E857
S113094003C085E901C081E00E946A0FCAE00E94E9
S11309506F0F882314F4C150D1F7DF91CF911F9109
S11309600F91FF900895AF92BF92CF92DF92EF92D2
S1130970FF920F931F93CF93DF937C0169018091C2
S11309805A0583FD09C0032E39E0440F551F661F25
S1130990771F3A95D1F7302D81E50E9471048111BA
S11309A033C0C0E4DCE90E946F0F8F3F21F421972C
S11309B0D1F7C1E02CC08E3F49F582E092E05C01A2
S11309C0A01AB10AAC18BD08C114D10429F0E6017B
S11309D00E946F0F2197E1F7E114F10441F0E70160
S11309E00E946F0F899301501109D1F705C00E942D
S11309F06F0F01501109D9F70E946F0F81E0A81AF7
S1130A00B108D1F7C0E003C0C1E001C0C1E05A9A07
S1130A100E946F0F8C2FDF91CF911F910F91FF9048
S1130A20EF90DF90CF90BF90AF9008950F931F93F6
S1130A30CF93DF93009711F1EA01209709F474C072
S1130A402091580530915905232B09F46FC08C016E
S1130A50F80181918F010E946A0F2091580530910D
S1130A605905215031093093590520935805219790
S1130A7009F45EC0232B61F7C0E05DC04115510548
S1130A806105710501F180915A0583FD09C0032EAA
S1130A9039E0440F551F661F771F3A95D1F7302D63
S1130AA088E50E947104811145C08FEF0E946A0F8E
S1130AB08EEF0E946A0F80E092E090935905809334
S1130AC05805C0E038C0C0915805D0915905CE3FB3
S1130AD0FFEFDF0711F408C0EC0180E00E946A0F09
S1130AE0CE0101972196C1F70E946F0F8F71853057
S1130AF041F0C1E015C0CE010197F1F70150110991
S1130B0004C008E813E1C0E9D1E00E946F0F8F3FF1
S1130B1019F00115110579F7C1E0012B09F0C0E0C6
S1130B205A9A0E946F0F07C0C0E005C0C0E003C01E
S1130B30C0E001C0C1E08C2FDF91CF911F910F91D4
S1130B400895AF92BF92CF92DF92EF92FF920F93EC
S1130B501F93CF93DF9300D000D0CDB7DEB7809141
S1130B605A05882349F05A9907C040E050E0BA0179
S1130B7080E090E00E9416050E944E0F5A9A1AE0F7
S1130B800E946F0F1150E1F740E050E0BA0180E499
S1130B900E947104813009F08FC04AEA51E060E09C
S1130BA070E088E40E947104813009F04BC0CE01EA
S1130BB001966C017E0195E0E90EF11C86010E940C
S1130BC06F0FF80181938F01EE16FF06C1F78B8139
S1130BD0813009F073C08C818A3A49F0F12C7EC0CF
S1130BE0C5010197F1F70150110949F469C000E109
S1130BF017E20F2EF0E9AF2EBB24B394F02D40E0A2
S1130C0050E060E070E489EE0E9471048111E8CF45
S1130C10012B09F457C040E050E0BA018AE70E9472
S1130C207104811151C00E946F0FF60181936F010D
S1130C30EE15FF05C1F7898186FD48C06894FF243D
S1130C40F2F84CC040E050E0BA0189EE0E94710411
S1130C50823038F0FF24F3940F2EF1E4EF2EF02DC0
S1130C6007C06894FF24F1F80F2EF9EEEF2EF02D53
S1130C7000E117E20F2EF0E9CF2EDD24D394F02DFE
S1130C8006C0C6010197F1F70150110921F140E0B6
S1130C9050E0BA018E2D0E9471048111F2CF012B14
S1130CA0E1F040E052E060E070E080E50E94710411
S1130CB08823A1F0F12C12C0F12C10C0F12C0EC02D
S1130CC0F12C0CC0F12C0AC0F12C08C00F2EFCE052
S1130CD0FF2EF02D03C0F12C01C0F12CF0925A0527
S1130CE05A9A0E946F0F81E0F11080E00F900F90EC
S1130CF00F900F90DF91CF911F910F91FF90EF9084
S1130D00DF90CF90BF90AF9008950F931F93E09121
S1130D105B05F0915C059B01AC012250310941094E
S1130D20510986819781A085B1850297A109B109EE
S1130D30281739074A075B0768F4A281B0E00E94CC
S1130D405A100289138924893589600F711F821F03
S1130D50931F03C060E070E0CB011F910F910895D1
S1130D600F931F93FC01A0915B05B0915C058C91DE
S1130D70833069F4658970E0762F66278489682B4F
S1130D80CB01A0E0B0E0BC015527442703C040E0FC
S1130D9050E0BA01238D30E0322F2227828D282B98
S1130DA0C901A0E0B0E08C019D01042B152B262B7A
S1130DB0372BC901B8011F910F9108950F931F9309
S1130DC0CF93DF93FC01A0915B05B0915C05118288
S1130DD010826481758186819781613071058105F6
S1130DE0910591F116960D911D912D913C911997B4
S1130DF0601771078207930748F5EF0161157105C4
S1130E008105910529F58C91833039F51E966D91F4
S1130E107D918D919C91519760877187828793878B
S1130E20611571058105910519F00E94850606C0BA
S1130E301E966D917D918D919C9151976C877D87C4
S1130E408E879F8780E00EC081E00CC081E00AC0DD
S1130E506087718782879387E8CF10861186128610
S1130E601386E6CFDF91CF911F910F910895CF9212
S1130E70DF92EF92FF920F931F93CF93DF93EC01D6
S1130E806A017B0102E010E02EEF31E00E94B3041E
S1130E90811132C0898190E0982F88272881822B84
S1130EA085359A4A59F526E330E0B701A601CE010B
S1130EB00E94B304811109C0898190E0982F88278A
S1130EC02881822B86349144D9F002E010E022E597
S1130ED030E0B701A601CE010E94B304811112C013
S1130EE0298130E0322F22278881282B81E0263483
S1130EF0314449F480E007C083E005C082E003C0C8
S1130F0080E001C081E0DF91CF911F910F91FF90AC
S1130F10EF90DF90CF9008954F925F926F927F92FF
S1130F208F929F92AF92BF92EF92FF920F931F9373
S1130F30CF93DF9300D000D0CDB7DEB76230710518
S1130F408105910508F4DEC0E0905B05F0905C0536
S1130F50F70186809780A084B184681579058A0595
S1130F609B0508F0D4C04B015C018081823009F4F8
S1130F7067C0833009F486C0813009F0CDC02401F4
S1130F8056944794480C591C92013170452C5524B1
S1130F9046942F3FF1E03F0791F0F70142855385D6
S1130FA064857585440D551D611D711D02E010E0B9
S1130FB0CE0101960E94B304882359F1B2C0612C7A
S1130FC0712CF7014285538564857585440D551D43
S1130FD0661D771D01E010E02FEF31E0CE01019690
S1130FE00E94B3048111A2C0F70142855385648530
S1130FF075854F5F5F4F6F4F7F4F440D551D661DC5
S1131000771D20E030E0CE0102960E94B3048111E6
S113101092C08A8190E0982F88272981822B80FEB4
S11310200AC0BC01729562956F7067277F7067274D
S113103080E090E08EC0BC017F7080E090E089C0C9
S113104094013327220F331F77276B2D5A2D492DF7
S1131050F70182859385A485B585480F591F6A1FBA
S11310607B1F02E010E0CE0101960E94B3048111BF
S113107067C06A8170E0762F66278981682B80E0DB
S113108090E067C094012F773327220F331F220F7C
S1131090331FD501C401689416F8B695A7959795A2
S11310A087951694D1F7F70182849384A484B58438
S11310B0AC01BD01480D591D6A1D7B1D04E010E003
S11310C0CE0101960E94B30481113FC02C816B8133
S11310D0862F90E0A0E0B0E0DC0199278827B22BAE
S11310E02981AC01BD01422B8A8190E0982F882789
S11310F0A0E0B0E0842B952BA62BB72BBC01CD012F
S11311009F7027C061E070E080E090E022C061E061
S113111070E080E090E01DC061E070E080E090E06D
S113112018C061E070E080E090E013C061E070E01E
S113113080E090E00EC061E070E080E090E009C0E3
S113114061E070E080E090E004C061E070E080E085
S113115090E00F900F900F900F90DF91CF911F911F
S11311600F91FF90EF90BF90AF909F908F907F90E2
S11311706F905F904F900895CF92DF92EF92FF921D
S11311800F931F93CF93DF93FC01C081D1812196EC
S113119009F460C0448555856685778541155105F8
S11311A06105710509F458C08C01CE018F7099272F
S11311B0892B09F04AC0E0905B05F0905C054F5F15
S11311C05F4F6F4F7F4F448755876687778740858A
S11311D0518562857385411551056105710539F4A1
S11311E0F70184819581C817D907C0F52EC0F7018E
S11311F0828190E001979E01329522952F702327DA
S11312003F70232782239323892BF9F4CB01BA015E
S11312100E948C07623071058105910508F1F70180
S1131220C680D780E084F1846C157D058E059F050A
S1131230C8F4F80160877187828793870E948506C6
S1131240F8016487758786879787F801D183C083FF
S113125080E009C083E007C083E005C083E003C0E9
S113126081E001C083E0DF91CF911F910F91FF9046
S1131270EF90DF90CF9008952F923F924F925F921C
S11312806F927F928F929F92AF92BF92CF92DF9292
S1131290EF92FF920F931F93CF93DF937C016B0127
S11312A05A01FA018081803229F431965F018191DB
S11312B08032E1F38F3219F4FFEFAF1ABF0AF7015E
S11312C01482158216821782F5018081803238F4E7
S11312D0C7010E94DE06482FF6011082A0C0689460
S11312E0992495F8612C6894442443F8242C0F2EF7
S11312F0FBE03F2EF02D55245394E6012B96852CCC
S1131300762CF701A281B381FD01CD010B96919258
S11313108E179F07E1F7962D862D342D01C0822F5D
S113132021E0280FF501E80FF11D80818132C8F01A
S11313308F32B9F08E3209F466C0931790F4882383
S11313402CF4E82FF0E0E85AFB4F80814FE9480F76
S11313504A3108F48052FD01E90FF11D80839F5F3B
S1131360DECFA20EB11C952D813208F0962D1B966E
S11313709C93C7010E94DE06482F811150C0F701DB
S1131380208131812F703327220F331F229532950C
S1131390307F3227207F32274485558566857785BF
S11313A000E210E0C6010E94B304482D811101C07F
S11313B0472D411134C0F6018081882379F153858A
S11313C053FD0DC0F70182819381F601DC0103C056
S11313D0CE17DF07F1F031912D913217C9F3C70110
S11313E00E94BC08482F882351F219C054FF09C039
S11313F0C6010E94B006F7016483758386839783D0
S113140080CF43E00CC0383009F0ABCF922D332DA0
S113141086CFFC018385882349F301C043E0842FF0
S1131420DF91CF911F910F91FF90EF90DF90CF90BC
S1131430BF90AF909F908F907F906F905F904F90F0
S11314403F902F9008954F925F926F927F928F9268
S11314509F92AF92BF92DF92EF92FF920F931F93EE
S1131460CF93DF93CDB7DEB7A8970FB6F894DEBF5E
S11314700FBECDBF7C0110925C0510925B050E94EB
S1131480A10580FD4FC140E050E0BA01CE010196B4
S11314900E943707813089F500E110E02EEB31E03E
S11314A040E050E0BA01CE0101960E94B3048111DC
S11314B03BC18D81882309F439C18C858B84912C9F
S11314C0A12CB12C540199248824B82A8985A5011A
S11314D09401282BDA01C9018A84912C982C882440
S11314E0A12CB12C882A992AAA2ABB2AB501A401C5
S11314F0CE0101960E94370703C0812C912C540120
S1131500833009F415C1811115C104E210E02DE006
S113151030E0B501A401CE0101960E94B30481110B
S11315200BC12B8530E0322F22278A85282B40E0FF
S113153050E02115310541055105C1F48B8D2A8DEB
S1131540422F50E060E070E0BA0155274427782B21
S1131550888D482B898D90E0982F8827A0E0B0E0F3
S11315609A01AB01282B392B4A2B5B2BAC81B0E0C1
S11315700E945A106DA37EA38FA398A74B8150E0BD
S1131580542F44278A81482B60E070E0840E951E16
S1131590A61EB71EF70182869386A486B586D980D7
S11315A0D282AE81B0E0BA2FAA278D81A82BB58351
S11315B0A483888590E0982F88272F81822B8C0123
S11315C020E030E00115110521053105C9F48F89AA
S11315D00E8910E020E030E0980111270027382B15
S11315E08C8928013901482A2D89E22FF0E03E2F09
S11315F02227890120E030E00429152926293729EA
S1131600B295A295AF70AB27BF70AB272D01612CAB
S1131610712CD901C801841B950BA60BB70B2DA106
S11316203EA14FA158A5821B930BA40BB50BBC0183
S1131630CD0164197509860997092D2D30E040E024
S113164050E00E943810DA01C9010296A11DB11DB3
S1131650F70186839783A087B187BA01A901465F02
S11316605F40610971094F3F5F4E6105710548F0A4
S113167021E0873F3FE09307A105B10518F020E082
S113168001C022E0873F9F4FA105B10508F058C073
S1131690222309F453C0F70120832330F1F42BA152
S11316A08AA190E0A0E0B0E0DC0199278827B22B62
S11316B028A1AC01BD01422B89A1282F30E0922F33
S11316C08827A0E0B0E0842B952BA62BB72BF7013D
S11316D086879787A08BB18B0DC08DA19EA1AFA1EA
S11316E0B8A5880D991DAA1DBB1DF701868797878C
S11316F0A08BB18B840C951CA61CB71C4DA05EA0BE
S11317006FA078A4480C591C6A1C7B1CF701428A00
S1131710538A648A758A1182F0925C05E0925B05B3
S113172080E012C082E010C081E00EC086E00CC0F0
S113173081E00AC086E008C081E006C086E004C0FB
S113174083E0F7018083ABCFA8960FB6F894DEBF91
S11317500FBECDBFDF91CF911F910F91FF90EF90FE
S1131760DF90BF90AF909F908F907F906F905F902D
S11317704F9008950F931F93CF93DF93CDB7DEB7A8
S1131780EC970FB6F894DEBF0FBECDBF00915B059A
S113179010915C050115110509F43FC0AC01F80175
S11317A01182CE0141969C838B83BE01635E7F4F81
S11317B040970E943C09811135C08D8D882379F1B1
S11317C088A584FD2EC0CE014D960E94B006F80176
S11317D0668F778F80A391A32CAD8BAD90E0A0E0B2
S11317E0B0E0DC0199278827B22B29AD822B4AADC2
S11317F050E0542F442760E070E0842B952BA62BF7
S1131800B72B828F938FA48FB58F168A178A108E69
S1131810118E81E0818380E005C085E003C083E010
S113182001C083E0EC960FB6F894DEBF0FBECDBFC7
S1131830DF91CF911F910F9108952F923F924F9274
S11318405F926F927F928F929F92AF92BF92CF924C
S1131850DF92EF92FF920F931F93CF93DF932C01AC
S11318606B013A01E0905B05F0905C05FA0111828E
S11318701082E114F10409F4BAC0F701818180FFF8
S1131880B8C0828D938DA48DB58D46895789608D9E
S1131890718D841B950BA60BB70BA60160E070E05D
S11318A084179507A607B70708F46C01C114D1047F
S11318B009F4A1C05201812C6894992491F8312C27
S11318C0212CF70186899789A08DB18DAC01BD01CA
S11318D0517066277727452B462B472B09F048C0C4
S11318E0C281C150AC01BD01032E39E076956795E4
S11318F0579547953A95D1F7302DC423F1F4892BA8
S11319008A2B8B2B29F4668D778D80A191A107C03A
S1131910F70162A173A184A195A10E948C07623092
S113192071058105910520F4F701118281E064C0FD
S1131930F70162A373A384A395A3F70162A173A122
S113194084A195A10E948506611571058105910503
S113195021F4F701118281E04FC0DC01CB018C0F2F
S1131960911DA11DB11DF70186A397A3A0A7B1A73F
S1131970F701268937893170E401C21BD30BCC16D9
S1131980DD0608F4E601F70146A157A160A571A59B
S11319904114510419F08A2D9B2D02C0832D922DE0
S11319A08E010E94B304882321F0F701118281E0A3
S11319B023C0F70186899789A08DB18D8C0F9D1F57
S11319C0A11DB11D868B978BA08FB18FAC0EBD1E50
S11319D0CC1ADD0AF30180819181C80FD91FD1830C
S11319E0C083C114D10409F06CCF80E005C085E048
S11319F003C084E001C080E0DF91CF911F910F917B
S1131A00FF90EF90DF90CF90BF90AF909F908F901A
S1131A107F906F905F904F903F902F9008954F92DA
S1131A205F926F927F928F929F92AF92BF92CF926A
S1131A30DF92EF92FF920F931F93CF93DF936C018A
S1131A407B015A01C0915B05D0915C05FA011182BA
S1131A501082209709F4DFC0898180FFDEC0672BE4
S1131A6099F486FF0CC040E050E0BA0180E090E0B9
S1131A700E941605882319F0198281E0D1C089815A
S1131A808F7B898380E0CCC086FD0AC08E899F89C4
S1131A90A88DB98D88279E7F8E8B9F8BA88FB98F39
S1131AA08A8D9B8DAC8DBD8D4E895F89688D798DB6
S1131AB0841B950BA60BB70BA70160E070E084179D
S1131AC09507A607B70720F47C01892B09F4A7C062
S1131AD0812C6894992491F88E899F89A88DB98D59
S1131AE09C013170232B09F04EC01A811150AC01B6
S1131AF0BD01032E39E076956795579547953A953C
S1131B00D1F7302D1423D9F4892B8A2B8B2B29F46C
S1131B106E8D7F8D88A199A106C06AA17BA18CA13D
S1131B209DA10E948C07623071058105910518F40E
S1131B30198281E075C06AA37BA38CA39DA36AA1CB
S1131B407BA18CA19DA10E9485066115710581056B
S1131B50910519F4198281E063C0AB01BC01410F06
S1131B60511D611D711D4EA35FA368A779A780E075
S1131B7090E00E941605882319F0198281E050C074
S1131B808981806489838E899F8991708401081B6F
S1131B90190BE016F10608F487012801612C712C59
S1131BA0B301A201C6010E941605882319F0198207
S1131BB081E036C08E899F89A88DB98D480E591E43
S1131BC06A1E7B1E4E8A5F8A688E798EC00ED11E75
S1131BD0E01AF10AF50180819181080F191F118320
S1131BE000838E899F899170892B79F440E050E0BD
S1131BF0BA0180E090E00E941605882319F019824A
S1131C0081E00EC089818F7B8983E114F10409F09E
S1131C1063CF80E005C085E003C084E001C080E0BC
S1131C20DF91CF911F910F91FF90EF90DF90CF90B4
S1131C30BF90AF909F908F907F906F905F904F90E8
S1131C4008954F925F926F927F928F929F92AF927C
S1131C50BF92CF92DF92EF92FF92CF93DF9300D0A7
S1131C6000D000D0CDB7DEB720915B0530915C0584
S1131C703E832D832115310509F4F6C0D90111964F
S1131C802C91119720FFF2C05A96CD90DD90ED90E3
S1131C90FC905D976C157D058E059F0510F46B0116
S1131CA07C01ED81FE8146885788608C718C168A90
S1131CB0178A108E118EC114D104E104F10409F4C1
S1131CC0D7C08280912CA12CB12C072E79E0880CEE
S1131CD0991CAA1CBB1C7A95D1F7702D4114510490
S1131CE06104710409F440C0B1E04B1A5108610861
S1131CF07108C701B6016150710981099109A501F3
S1131D0094010E94381029833A834B835C83C30176
S1131D10B201A50194010E94381089819A81AB8196
S1131D20BC8182179307A407B507F0F08827992789
S1131D30DC0188199909AA09BB09482259226A2297
S1131D407B22AD81BE8156964D925D926D927C92BE
S1131D505997C418D508E608F70892966D917D91B5
S1131D608D919C9195970AC0ED81FE81668D778D4A
S1131D7080A191A162A373A384A395A38C149D0451
S1131D80AE04BF0498F50E948C076230710581058A
S1131D90910558F0ED81FE814680578060847184FE
S1131DA0641575058605970530F0AD81BE811196E1
S1131DB01C9281E05EC0ED81FE8162A373A384A3C3
S1131DC095A346885788608C718C480C591C6A1CF2
S1131DD07B1C468A578A608E718EC818D908EA0817
S1131DE0FB088C149D04AE04BF0468F2ED81FE81EF
S1131DF086889788A08CB18CC80CD91CEA1CFB1C63
S1131E00C68AD78AE08EF18E0E9485066115710517
S1131E108105910529F4ED81FE81118281E029C0BB
S1131E20AD81BE8112962C91129730E02150310978
S1131E304901330FAA08BB080B2EB9E0F694E794C6
S1131E40D794C794BA95D1F7B02DC820D920EA20E9
S1131E50FB20C60ED71EE81EF91EFD01C6A2D7A29E
S1131E60E0A6F1A680E005C085E003C084E001C0DF
S1131E7080E026960FB6F894DEBF0FBECDBFDF918B
S1131E80CF91FF90EF90DF90CF90BF90AF909F9055
S1131E908F907F906F905F904F90089584B18F6280
S1131EA084B92498539A81E58CBD2FE38DE093E0A7
S1131EB0215080409040E1F700C00000089566235F
S1131EC011F0289801C0289A8EBD0DB407FEFDCFED
S1131ED02D9A08958EBD0DB407FEFDCF08958FEFA2
S1131EE00E946A0F0DB407FEFDCF8EB50895CF93FF
S1131EF0DF9300D000D01F92CDB7DEB749835A8359
S1131F006B837C838D8329813A8140E050E060E4D7
S1131F1072E48FE090E00E94381021503109309330
S1131F20C5002093C4008B81863079F018F4853085
S1131F3031F01CC0873079F0883099F017C0E2EC9A
S1131F40F0E08081897F808311C0E2ECF0E0808141
S1131F50826080830BC0E2ECF0E080818460808347
S1131F6005C0E2ECF0E08081866080838C81813062
S1131F7051F018F0823069F011C0E2ECF0E0808199
S1131F808F7C80830BC0E2ECF0E0808180638083EF
S1131F9005C0E2ECF0E08081806280838D81813035
S1131FA019F0823039F00BC0E2ECF0E08081877FD9
S1131FB0808305C0E2ECF0E0808188608083E1ECFE
S1131FC0F0E08081886180838081806A80832FEF44
S1131FD081EE94E0215080409040E1F700C0000081
S1131FE00F900F900F900F900F90DF91CF91089565
S1131FF0E0ECF0E0908195FFFDCF8093C60008955A
S1132000CF93DF93EC018881882331F021960E94DD
S1132010F80F89918111FBCFDF91CF910895E0EC06
S1132020F0E080818823ECF78091C6000895EF9258
S1132030FF920F931F93CF93DF93E62EF12CE114BD
S1132040F10479F0082F192FC0E0D0E00E940F109E
S1132050F80181938F018E3221F02196CE15DF0590
S1132060A9F7DF91CF911F910F91FF90EF90089501
S1132070A1E21A2EAA1BBB1BFD010DC0AA1FBB1F88
S1132080EE1FFF1FA217B307E407F50720F0A21BFA
S1132090B30BE40BF50B661F771F881F991F1A9467
S11320A069F760957095809590959B01AC01BD0191
S11320B0CF0108950E946510A59F900DB49F900DC7
S11320C0A49F800D911D11240895A29FB001B39F78
S11320D0C001A39F700D811D1124911DB29F700D2D
S11320E0811D1124911D08950F931F93CF93DF93A6
S11320F08230910510F482E090E0E0915F05F09168
S1132100600520E030E0A0E0B0E0309719F14081B4
S113211051810281138148175907C8F08417950724
S113212069F4109731F012960C93129713961C933E
S113213027C000935F051093600522C02115310567
S113214019F04217530718F49A01BD01EF01DF019A
S1132150F801DBCF21153105F9F0281B390B2430A8
S1132160310580F48A819B816115710521F0FB01A1
S11321709383828304C09093600580935F05FE017E
S1132180329644C0FE01E20FF31F819391932250D3
S11321903109398328833AC020915D0530915E0569
S11321A0232B41F4209102013091030130935E0509
S11321B020935D0520910001309101012115310525
S11321C041F42DB73EB74091040150910501241B01
S11321D0350BE0915D05F0915E05E217F307A0F47D
S11321E02E1B3F0B2817390778F0AC014E5F5F4F69
S11321F02417350748F04E0F5F1F50935E05409338
S11322005D058193919302C0E0E0F0E0CF01DF919E
S1132210CF911F910F910895CF93DF93009709F405
S113222081C0FC01329713821282A0915F05B091A4
S11322306005109781F420813181820F931F2091D2
S11322405D0530915E052817390751F5F0935E0559
S1132250E0935D0567C0ED0120E030E0CE17DF07B5
S113226040F44A815B819E0141155105F1F0EA0178
S1132270F5CFD383C28340815181840F951FC81742
S1132280D90759F488819981840F951F0296918307
S113229080838A819B81938382832115310529F46C
S11322A0F0936005E0935F053DC0E901FB83EA8399
S11322B049915991C40FD51FEC17FD0761F4808132
S11322C09181840F951F0296E90199838883828105
S11322D093819B838A83E0E0F0E012968D919C9138
S11322E01397009719F0FD01DC01F7CF8D919C91B4
S11322F011979D012E5F3F4F820F931F20915D0523
S113230030915E052817390769F4309729F4109243
S1132310600510925F0502C013821282B0935E05BD
S1132320A0935D05DF91CF910895FB01DC0101903D
S10F23300D920020E1F70895F894FFCF0F
S113233C00006105200000E10800014572726F7213
S113234C3A2000547279696E6720746F206D6F7532
S113235C6E7420746865205344206361726427731F
S113236C2066696C652073797374656D3A2000730B
S113237C7563636573732E0A00547279696E6720F2
S113238C746F206F70656E2061207465787420669C
S113239C696C6520666F722072656164696E673A58
S11323AC2000534550746573742E747874007066F1
S11323BC5F6F70656E004865726520697320746880
S11323CC652066696C6520636F6E74656E743A0A79
S11323DC000A2D2D2D2D2D2D2D2D2D2D2D2D2D2D6D
S11323EC2D2D2D2D2D2D2D2D2D2D2D2D2D2D2D2D0D
S11323FC2D2D2D2D2D2D2D2D2D2D2D2D2D2D2D2DFD
S113240C2D0A0070665F72656164000A2D2D2D2DF6
S113241C2D2D2D2D2D2D2D2D2D2D2D2D2D2D2D2DDC
S113242C2D2D2D2D2D2D2D2D2D2D2D2D2D2D2D2DCC
S113243C2D2D2D2D2D2D2D2D2D2D2D0A0A0A00542B
S113244C7279696E6720746F206F70656E206120DD
S113245C746578742066696C6520666F7220777277
S113246C6974696E673A200077726974654D652EDC
S113247C74787400476F696E6720746F20626567A7
S113248C696E6E696E67206F662066696C653A20AA
S113249C0070665F6C7365656B0057726974696E66
S11324AC6720736F6D65206461746120746F207490
S11324BC68652066696C653A200070665F7772699E
S11324CC7465207768696C652077726974696E67C6
S11324DC207468652066696C6520636F6E74656E24
S11324EC740070665F7772697465207768696C65CF
S11324FC20636C6F73696E67207468652066696C01
S113250C652E00547279696E6720746F206F706544
S113251C6E20616E6F7468657220746578742066C1
S113252C696C6520666F722077726974696E6720B6
S113253C6D6F72653A200077726974654D65322E41
S113254C74787400506C65617365207479706520BF
S113255C612073686F7274206D6573736167652095
S113256C616E6420707265737320656E7465722E6F
S113257C200057726974696E67206D6573736167A7
S113258C6520746F207468652066696C653A200058
S113259C0A0A3C2D2D2D2D205468652053442063AC
S11325AC617264207465737420697320646F6E6542
S11325BC21202D2D2D2D3E0A0A00496620746869B0
S11325CC73206D65737361676520646F6573206E2A
S11325DC6F742061707065617220696E20796F75FB
S11325EC7220746578742066696C652C20796F751B
S11325FC206661696C656420746F20726561642067
S113260C7468652050464620646F63756D656E74FE
S113261C6174696F6E2E20526561642061626F75FE
S113262C742074686520757365206F662070665F0E
S113263C7772697465282920746865726521006550
S113264C72726F72207066206F70656E2E00496E08
S113265C697469616C6973696E6720686172647707
S113266C6172652E2E2E2000737563636573732E51
S113267C0D0A004269656E76656E69646F2061208F
S113268C6C6120707275656261206465206C656391
S113269C747572612064652074757320617263684B
S11326AC69766F73207478742E0D0A00496E696311
S11326BC69616E646F20747520616E696D616C2044
S11326CC6573706972697475616C0D0A0063617469
S11326DC2E626D70004C6120696D6167656E2073AC
S11326EC65206861206361726761646F2065786935
S11326FC746F73616D656E746520656E20747520DE
S113270C544654212E0D0A00808182838485868749
S113271C88898A8B8C8D8E8F9091929394959697B1
S113272C9899AD9B8C9DAE9FA021A2A3A4A5A6A70E
S113273CA8A9AAABACADAEAFB0B1B2B3B4B5B6B791
S113274CB8B9BABBBCBDBEBFC0C1C2C3C4C5C6C781
S113275CC8C9CACBCCCDCECFD0D1D2D3D4D5D6D771
S113276CD8D9DADBDCDDDEDFC0C1C2C3C4C5C6C761
S113277CC8C9CACBCCCDCECFD0D1D2D3D4D5D6F731
S10B278CD8D9DADBDCDDDE9FA5
S9030000FC
