:100000000C9434000C943E000C943E000C943E0082
:100010000C943E000C943E000C943E000C943E0068
:100020000C943E000C943E000C943E000C943E0058
:100030000C943E000C943E000C943E000C943E0048
:100040000C943E000C943E000C943E000C943E0038
:100050000C943E000C943E000C943E000C943E0028
:100060000C943E000C943E0011241FBECFEFD8E04C
:10007000DEBFCDBF0E9440000C946E000C940000C7
:10008000239A2B9A84B184B91F9B13C02B9A2FEF0C
:1000900089E698E1215080409040E1F700C00000DF
:1000A0002B982FEF89E698E1215080409040E1F7AE
:1000B00012C02B9A2FEF8DE399E42150804090409D
:1000C000E1F700C000002B982FEF8DE399E4215059
:1000D00080409040E1F700C00000D6CFF894FFCFF9
:00000001FF
