:100000000C9434000C9451000C9451000C94510049
:100010000C9451000C9451000C9451000C9451001C
:100020000C9451000C9451000C9451000C9451000C
:100030000C9451000C9451000C9451000C945100FC
:100040000C9451000C9451000C9451000C945100EC
:100050000C9451000C9451000C9451000C945100DC
:100060000C9451000C94510011241FBECFEFD8E026
:10007000DEBFCDBF11E0A0E0B1E0E2E2F5E002C0FA
:1000800005900D92A03DB107D9F721E0A0EDB1E0B8
:1000900001C01D92A43DB207E1F70E9453000C94E9
:1000A0008F020C940000CF93DF9300D000D01F92FA
:1000B000CDB7DEB785E0E6E0F1E0DE011196019014
:1000C0000D928A95E1F749815A816B817C818D81FE
:1000D0000E9487008BE091E00E94FC000E940801D2
:1000E000182F8BE591E00E94FC00812F0E94F50003
:1000F0008AE691E00E94FC0080E791E00E94FC000B
:100100000E940F018AE691E00E94FC00E3CFCF93AA
:10011000DF9300D000D01F92CDB7DEB749835A835A
:100120006B837C838D8329813A8140E050E060E4D9
:1001300072E48FE090E00E944C012150310930932D
:10014000C5002093C4008B81863079F030F485306F
:10015000A9F48091C200897F0FC0873051F08830A8
:1001600069F48091C200866007C08091C2008260FD
:1001700003C08091C20084608093C2008C81813072
:1001800059F030F0823069F48091C200806207C07B
:100190008091C2008F7C03C08091C20080638093F5
:1001A000C2008D81813031F0823049F48091C200EB
:1001B000886003C08091C200877F8093C2008091D5
:1001C000C10088618093C1002FEF81EE94E021503F
:1001D00080409040E1F700C000000F900F900F901A
:1001E0000F900F90DF91CF9108959091C00095FFEF
:1001F000FCCF8093C6000895CF93DF93EC018991E3
:10020000882319F00E94F500FACFDF91CF9108956D
:100210008091C00087FFFCCF8091C60008950F93A6
:100220001F93CF93DF938091C00087FFFCCF00E046
:1002300010E0C0E0D0E0F80180818E32C9F083E0A8
:1002400090E00E946E018C010E940801F8018083F9
:1002500012821182209751F0FE01818192810097D4
:1002600011F0FC01FACF12830183E5CFE801E3CF5F
:1002700088EB91E00E94FC0089819A81892B39F0FA
:1002800088810E94F5000980DA81C02DF5CFDF91C9
:10029000CF911F910F910895A1E21A2EAA1BBB1BAB
:1002A000FD010DC0AA1FBB1FEE1FFF1FA217B30742
:1002B000E407F50720F0A21BB30BE40BF50B661F58
:1002C000771F881F991F1A9469F76095709580951C
:1002D00090959B01AC01BD01CF0108950F931F9331
:1002E000CF93DF938230910510F482E090E0E091AB
:1002F000D201F091D30120E030E0A0E0B0E03097EF
:1003000019F1408151810281138148175907C8F0C2
:100310008417950769F4109731F012960C93129791
:1003200013961C9327C00093D2011093D30122C0CF
:100330002115310519F04217530718F49A01BD0130
:10034000EF01DF01F801DBCF21153105F9F0281BA2
:10035000390B2430310580F48A819B816115710548
:1003600021F0FB019383828304C09093D301809397
:10037000D201FE01329644C0FE01E20FF31F8193C9
:10038000919322503109398328833AC02091D001BA
:100390003091D101232B41F42091020130910301CE
:1003A0003093D1012093D0012091000130910101BF
:1003B0002115310541F42DB73EB74091040150910C
:1003C0000501241B350BE091D001F091D101E2171A
:1003D000F307A0F42E1B3F0B2817390778F0AC0168
:1003E0004E5F5F4F2417350748F04E0F5F1F509345
:1003F000D1014093D0018193919302C0E0E0F0E0FD
:10040000CF01DF91CF911F910F910895CF93DF938B
:10041000009709F481C0FC01329713821282A091E7
:10042000D201B091D301109781F420813181820FE4
:10043000931F2091D0013091D1012817390751F530
:10044000F093D101E093D00167C0ED0120E030E0EE
:10045000CE17DF0740F44A815B819E0141155105AB
:10046000F1F0EA01F5CFD383C28340815181840F3B
:10047000951FC817D90759F488819981840F951F52
:100480000296918380838A819B8193838283211545
:10049000310529F4F093D301E093D2013DC0E90185
:1004A000FB83EA8349915991C40FD51FEC17FD07CF
:1004B00061F480819181840F951F0296E9019983EF
:1004C0008883828193819B838A83E0E0F0E01296A7
:1004D0008D919C911397009719F0FD01DC01F7CFE6
:1004E0008D919C9111979D012E5F3F4F820F931F1D
:1004F0002091D0013091D1012817390769F4309744
:1005000029F41092D3011092D20102C013821282F8
:10051000B093D101A093D001DF91CF910895F894C9
:02052000FFCF0B
:100522000000D401200000E108000157656C636FF0
:100532006D6520746F20746865206669727374201B
:10054200746573742E20506C656173652073656EDB
:100552006420612073696E676C65206368617261F3
:10056200637465722066726F6D20796F7572207484
:1005720065726D696E616C2E0D0A004920726563A9
:10058200656976656420616E20002E0D0A0D0A00F1
:1005920057656C636F6D6520746F207468652053B6
:1005A20065636F6E6420746573742E20506C656190
:1005B20073652073656E6420612070726F7065725E
:1005C2006C79207465726D696E61746564207374F0
:1005D20072696E672E0D0A0049207265636569763D
:1005E20065642074686973206C696E653A20000046
:00000001FF
