S01700004763634170706C69636174696F6E312E737265635B
S11300000C9434000C9449000C9449000C9495030E
S11300100C9449000C9449000C9449000C94490038
S11300200C9449000C9449000C9449000C94490028
S11300300C9449000C9449000C9449000C94490018
S11300400C9449000C9449000C9449000C94490008
S11300500C9449000C9449000C9449000C944900F8
S11300600C9449000C94490011241FBECFEFD8E032
S1130070DEBFCDBF11E0A0E0B1E0E2EEFBE002C0E4
S113008005900D92A230B107D9F70E9449030C9450
S1130090EF050C94000084B5816084BD84B5826052
S11300A084BD85B58E7F85BD85B5826085BD85B5EA
S11300B08B7F85BDE0EBF0E080818160808380816F
S11300C082608083E1EBF0E080818E7F8083808199
S11300D08260808380818B7F80830895569A24B5C3
S11300E0206824BD20E030E048EC52E40E942A0459
S11300F020E030E04FE753E40E9482059B01AC010D
S113010060E070E08FE793E40E94B8030E949C04CF
S113011067BD0895239AE0EBF0E0208120682083F6
S113012020E030E048EC52E40E942A0420E030E071
S11301304FE753E40E9482059B01AC0160E070E04C
S11301408FE793E40E94B8030E949C046093B30079
S11301500895539AE0EBF0E020812062208320E0B0
S113016030E048EC52E40E942A0420E030E04FE7FB
S113017053E40E9482059B01AC0160E070E08FE7CC
S113018093E40E94B8030E949C046093B400089511
S1130190ECE7F0E080818F7D8083808180648083C0
S11301A080818F778083EAE7F0E0808181608083BB
S11301B08081826080838081846080830895ECE7FD
S11301C0F0E09081907F90839081892B8083EAE78F
S11301D0F0E080818068808385E38A95F1F70000F0
S11301E0808180648083808184FFFDCFEAE7F0E032
S11301F080818061808380818F7780838091780083
S1130200909179000895CF92DF92EF92FF92019737
S113021009F0B6C080E090E00E94DF00BC01990FB5
S1130220880B990B0E94CD0420E030E040EA50E4B2
S11302300E94820520E030E040E85AE30E948205F3
S11302406B017C0120E030E0A9010E947D051816B5
S11302508CF423E333E343E35FE3C701B6010E9475
S1130260250488233CF460E070E080E090E40E9480
S11302706E0086C023E333E343E35FE3C701B601C3
S11302800E947D0588238CF020E030E040E85FE3A5
S1130290C701B6010E94250488233CF460E070E0A5
S11302A080EA90E40E946E006BC020E030E040E8F9
S11302B05FE3C701B6010E947D0588238CF020E02E
S11302C030E040E050E4C701B6010E9425048823D1
S11302D03CF460E070E088EC91E40E946E0050C051
S11302E020E030E040E050E4C701B6010E947D0503
S11302F088238CF020E030E040E450E4C701B601EC
S11303000E94250488233CF460E070E088E492E4D1
S11303100E946E0035C020E030E040E450E4C701A4
S1130320B6010E947D0588238CF020E030E040E88F
S113033050E4C701B6010E94250488233CF460E020
S113034070E086E992E40E946E001AC020E030E07A
S113035040E850E4C701B6010E947D05882384F07B
S113036020E030E040EA50E4C701B6010E942504D1
S1130370882334F460E070E088EC92E40E946E001C
S1130380FF90EF90DF90CF900895CF92DF92EF929D
S1130390FF92019709F0B6C080E090E00E94DF0070
S11303A0BC01990F880B990B0E94CD0420E030E02A
S11303B040EA50E40E94820520E030E040E85AE33D
S11303C00E9482056B017C0120E030E0A9010E94BB
S11303D07D0518168CF423E333E343E35FE3C7019D
S11303E0B6010E94250488233CF460E070E080E0BC
S11303F090E40E948A0086C023E333E343E35FE38F
S1130400C701B6010E947D0588238CF020E030E00E
S113041040E85FE3C701B6010E94250488233CF449
S113042060E070E080EA90E40E948A006BC020E003
S113043030E040E85FE3C701B6010E947D058823F0
S11304408CF020E030E040E050E4C701B6010E94A7
S1130450250488233CF460E070E088EC91E40E9479
S11304608A0050C020E030E040E050E4C701B6010B
S11304700E947D0588238CF020E030E040E450E4C5
S1130480C701B6010E94250488233CF460E070E0B3
S113049088E492E40E948A0035C020E030E040E421
S11304A050E4C701B6010E947D0588238CF020E04A
S11304B030E040E850E4C701B6010E9425048823D7
S11304C03CF460E070E086E992E40E948A001AC07D
S11304D020E030E040E850E4C701B6010E947D0509
S11304E0882384F020E030E040EA50E4C701B601FC
S11304F00E942504882334F460E070E088EC92E4E0
S11305000E948A00FF90EF90DF90CF900895CF92E1
S1130510DF92EF92FF92019709F0B6C080E090E07D
S11305200E94DF00BC01990F880B990B0E94CD0437
S113053020E030E040EA50E40E94820520E030E010
S113054040E85AE30E9482056B017C0120E030E020
S1130550A9010E947D0518168CF423E333E343E3D9
S11305605FE3C701B6010E94250488233CF460E0E0
S113057070E080E090E40E94A90086C023E333E3A6
S113058043E35FE3C701B6010E947D0588238CF035
S113059020E030E040E85FE3C701B6010E94250493
S11305A088233CF460E070E080EA90E40E94A900B3
S11305B06BC020E030E040E85FE3C701B6010E9471
S11305C07D0588238CF020E030E040E050E4C70152
S11305D0B6010E94250488233CF460E070E088ECB6
S11305E091E40E94A90050C020E030E040E050E4D3
S11305F0C701B6010E947D0588238CF020E030E01D
S113060040E450E4C701B6010E94250488233CF469
S113061060E070E088E492E40E94A90035C020E024
S113062030E040E450E4C701B6010E947D05882310
S11306308CF020E030E040E850E4C701B6010E94AD
S1130640250488233CF460E070E086E992E40E948B
S1130650A9001AC020E030E040E850E4C701B60128
S11306600E947D05882384F020E030E040EA50E4D5
S1130670C701B6010E942504882334F460E070E0C9
S113068088EC92E40E94A900FF90EF90DF90CF9055
S113069008950E944B000E94C80084B184B9509A06
S11306A0F894E8E6F0E0808181608083EBE6F0E096
S11306B08081806880837894809100019091010109
S11306C0019769F480E090E00E94C50180E090E029
S11306D00E94870281E090E00E940301EDCF8091A7
S11306E0000190910101029769F480E090E00E947A
S11306F0030180E090E00E94870281E090E00E9484
S1130700C501DACF80910001909101010397A1F610
S113071080E090E00E94C50180E090E00E94030127
S113072081E090E00E948702C7CF1F920F920FB61C
S11307300F9211248F939F93809100019091010156
S113074001969093010180930001809100019091A2
S11307500101049734F081E090E0909301018093CB
S113076000019F918F910F900FBE0F901F901895CD
S11307705058BB27AA270E94D0030C9443050E941B
S1130780350538F00E943C0520F039F49F3F19F4F8
S113079026F40C9432050EF4E095E7FB0C942C053A
S11307A0E92F0E94540558F3BA17620773078407A8
S11307B0950720F079F4A6F50C9476050EF4E095EF
S11307C00B2EBA2FA02D0B01B90190010C01CA0107
S11307D0A0011124FF27591B99F0593F50F4503EB2
S11307E068F11A16F040A22F232F342F4427585FA4
S11307F0F3CF469537952795A795F0405395C9F7BC
S11308007EF41F16BA0B620B730B840BBAF0915073
S1130810A1F0FF0FBB1F661F771F881FC2F70EC012
S1130820BA0F621F731F841F48F4879577956795E5
S1130830B795F7959E3F08F0B0CF9395880F08F0D1
S11308409927EE0F9795879508950E94080508F457
S113085081E008950E943E040C9443050E943C05E7
S113086058F00E94350540F029F45F3F29F00C94BC
S11308702C0551110C9477050C9432050E945405F3
S113088068F39923B1F3552391F3951B550BBB27BB
S1130890AA2762177307840738F09F5F5F4F220F00
S11308A0331F441FAA1FA9F335D00E2E3AF0E0E8F7
S11308B032D091505040E695001CCAF72BD0FE2F41
S11308C029D0660F771F881FBB1F261737074807D5
S11308D0AB07B0E809F0BB0B802DBF01FF2793588D
S11308E05F4F3AF09E3F510578F00C942C050C9420
S11308F077055F3FE4F3983ED4F386957795679543
S1130900B795F7959F5FC9F7880F911D96958795C1
S113091097F90895E1E0660F771F881FBB1F6217E0
S113092073078407BA0720F0621B730B840BBA0B9E
S1130930EE1F88F7E09508950E945C0588F09F57A4
S113094098F0B92F9927B751B0F0E1F0660F771FEF
S1130950881F991F1AF0BA95C9F714C0B13091F0E5
S11309600E947605B1E008950C947605672F782FE0
S11309708827B85F39F0B93FCCF3869577956795AA
S1130980B395D9F73EF490958095709561957F4F16
S11309908F4F9F4F0895E89409C097FB3EF49095BC
S11309A08095709561957F4F8F4F9F4F9923A9F044
S11309B0F92F96E9BB279395F695879577956795D3
S11309C0B795F111F8CFFAF4BB0F11F460FF1BC017
S11309D06F5F7F4F8F4F9F4F16C0882311F096E9AA
S11309E011C0772321F09EE8872F762F05C0662358
S11309F071F096E8862F70E060E02AF09A95660F11
S1130A00771F881FDAF7880F9695879597F90895C9
S1130A10990F0008550FAA0BE0E8FEEF161617060B
S1130A20E807F907C0F012161306E407F50798F073
S1130A30621B730B840B950B39F40A2661F0232B8C
S1130A40242B252B21F408950A2609F4A140A69508
S1130A508FEF811D811D089597F99F6780E870E0ED
S1130A6060E008959FEF80EC089500240A94161620
S1130A70170618060906089500240A941216130688
S1130A80140605060895092E0394000C11F4882316
S1130A9052F0BB0F40F4BF2B11F460FF04C06F5F32
S1130AA07F4F8F4F9F4F089557FD9058440F551F08
S1130AB059F05F3F71F04795880F97FB991F61F0DC
S1130AC09F3F79F087950895121613061406551F53
S1130AD0F2CF4695F1DF08C0161617061806991FBF
S1130AE0F1CF86957105610508940895E894BB27B4
S1130AF066277727CB0197F908950E94080508F423
S1130B008FEF08950E9495050C9443050E943505C6
S1130B1038F00E943C0520F0952311F00C942C052C
S1130B200C94320511240C9477050E94540570F33B
S1130B30959FC1F3950F50E0551F629FF001729F7E
S1130B40BB27F00DB11D639FAA27F00DB11DAA1F8D
S1130B50649F6627B00DA11D661F829F2227B00DDA
S1130B60A11D621F739FB00DA11D621F839FA00D65
S1130B70611D221F749F3327A00D611D231F849FB5
S1130B80600D211D822F762F6A2F11249F5750400C
S1130B909AF0F1F088234AF0EE0FFF1FBB1F661F87
S1130BA0771F881F91505040A9F79E3F510580F050
S1130BB00C942C050C9477055F3FE4F3983ED4F332
S1130BC0869577956795B795F795E7959F5FC1F7F4
S1130BD0FE2B880F911D9695879597F90895F894A3
S1050BE0FFCF41
S1050BE2FFFF0F
S9030000FC
