S01700004763634170706C69636174696F6E312E737265635B
S11300000C9434000C943E000C943E000C943E007E
S11300100C943E000C943E000C943E000C943E0064
S11300200C943E000C943E000C943E000C943E0054
S11300300C943E000C943E000C943E000C943E0044
S11300400C943E000C943E000C943E000C943E0034
S11300500C943E000C943E000C943E000C943E0024
S11300600C943E000C943E0011241FBECFEFD8E048
S1130070DEBFCDBF0E9440000C9470000C940000C1
S1130080239A2B9A84B184B91F9B15C02B9A2FEF06
S113009089E698E1215080409040E1F700C00000DB
S11300A02B982FEF89E698E1215080409040E1F7AA
S11300B000C00000E9CF2B9A2FEF81EE94E021508D
S11300C080409040E1F700C000002B982FEF81EEB4
S11300D094E0215080409040E1F700C00000D4CF6C
S10700E0F894FFCFBE
S9030000FC
