:100000000C9434000C9451000C9451000C947E001C
:100010000C9451000C9451000C9451000C9451001C
:100020000C9451000C9451000C9451000C9451000C
:100030000C9451000C9451000C9451000C945100FC
:100040000C9451000C9451000C94AB000C940701DB
:100050000C9451000C9451000C9451000C945100DC
:100060000C9451000C94510011241FBECFEFD8E026
:10007000DEBFCDBF11E0A0E0B1E0E6E7F7E002C0EF
:1000800005900D92AA34B107D9F721E0AAE4B1E0B6
:1000900001C01D92AE35B207E1F70E9453000C94E7
:1000A000B9030C940000CF93DF9300D000D01F92CF
:1000B000CDB7DEB7F8942798E8E6F0E0808181605C
:1000C0008083EBE6F0E0808180688083259A85E07C
:1000D000E7E0F1E0DE01119601900D928A95E1F7DB
:1000E00049815A816B817C818D810E946601E1EC9E
:1000F000F0E08081806880837894FFCF1F920F9218
:100100000FB60F9211242F933F934F935F936F93EA
:100110007F938F939F93AF93BF93EF93FF931F9B17
:1001200005C08CE091E00E94EF0104C084E291E000
:100130000E94EF01FF91EF91BF91AF919F918F913D
:100140007F916F915F914F913F912F910F900FBED3
:100150000F901F9018951F920F920FB60F921124B7
:10016000CF92DF92EF92FF921F932F933F934F9383
:100170005F936F937F938F939F93AF93BF93CF932F
:10018000DF93EF93FF9364E170E08CE491E00E94D1
:10019000FE01C0ECD0E00F2EF6ECCF2ED12CF02DCE
:1001A0000F2EF1ECEF2EF12CF02D15C08881882355
:1001B000ECF7F6011081911731F0612F8CE491E09A
:1001C0000E94190208C0F70180818F7780838081A7
:1001D00080628083192F909106011913E7CFFF9158
:1001E000EF91DF91CF91BF91AF919F918F917F91CF
:1001F0006F915F914F913F912F911F91FF90EF90E1
:10020000DF90CF900F900FBE0F901F9018951F9208
:100210000F920FB60F9211242F933F934F935F933A
:100220006F937F938F939F93AF93BF93CF93DF93FE
:10023000EF93FF93ECE4F1E0268137818281938193
:100240008217930724F0121613069CF020C018168C
:100250001906ECF4C0E0D0E08CE491E00E94440286
:10026000219680914E0190914F01C817D907A4F3B0
:100270000EC0C0E0D0E08CE491E00E9444022196E0
:100280008091520190915301C817D907A4F384E4D7
:1002900091E00E94EF01E1ECF0E080818F7D8083AE
:1002A000808180688083FF91EF91DF91CF91BF9132
:1002B000AF919F918F917F916F915F914F913F91FE
:1002C0002F910F900FBE0F901F901895CF93DF9333
:1002D00000D000D01F92CDB7DEB749835A836B831D
:1002E0007C838D8329813A8140E050E060E472E4B0
:1002F0008FE090E00E947602215031093093C500D2
:100300002093C4008B81863079F018F4853031F069
:100310001CC0873079F0883099F017C0E2ECF0E02B
:100320008081897F808311C0E2ECF0E0808182606F
:1003300080830BC0E2ECF0E080818460808305C0A4
:10034000E2ECF0E08081866080838C81813051F026
:1003500018F0823069F011C0E2ECF0E080818F7C0F
:1003600080830BC0E2ECF0E080818063808305C075
:10037000E2ECF0E08081806280838D81813019F031
:10038000823039F00BC0E2ECF0E08081877F80831F
:1003900005C0E2ECF0E0808188608083E1ECF0E071
:1003A0008081886180838081806A80832FEF81EEE5
:1003B00094E0215080409040E1F700C000000F9091
:1003C0000F900F900F900F90DF91CF910895E0EC78
:1003D000F0E0908195FFFDCF8093C6000895CF9304
:1003E000DF93EC018881882331F021960E94E70198
:1003F00089918111FBCFDF91CF910895CF93DF9346
:10040000EC017B836A831B861A861D861C861F82ED
:100410001E82198618868FEF9FEF9D838C83CB01F8
:10042000880F991F0E94980299838883DF91CF914A
:100430000895FC01828593859C012F5F3F4F428187
:1004400053814217530714F420E030E0408151817A
:10045000DA01A80FB91F6C933387228786819781B1
:100460000196978386838481958101969583848301
:1004700022813381215031098217930721F48FEFB4
:100480009FEF9583848308950F931F93CF93DF93FA
:10049000EC012A813B818E819F81281739076CF4FA
:1004A0008C819D818217930724F401969D878C8708
:1004B00002C01D861C861F821E828C859D858C0134
:1004C0000F5F1F4F2017310714F400E010E0288160
:1004D0003981F901E80FF91F80810E94E7011D872A
:1004E0000C87DF91CF911F910F910895A1E21A2EF1
:1004F000AA1BBB1BFD010DC0AA1FBB1FEE1FFF1FC8
:10050000A217B307E407F50720F0A21BB30BE40B17
:10051000F50B661F771F881F991F1A9469F760955E
:100520007095809590959B01AC01BD01CF01089518
:100530000F931F93CF93DF938230910510F482E0E5
:1005400090E0E0915C01F0915D0120E030E0A0E0FE
:10055000B0E0309719F14081518102811381481731
:100560005907C8F08417950769F4109731F012966F
:100570000C93129713961C9327C000935C01109361
:100580005D0122C02115310519F04217530718F4F7
:100590009A01BD01EF01DF01F801DBCF2115310523
:1005A000F9F0281B390B2430310580F48A819B81B6
:1005B0006115710521F0FB019383828304C0909340
:1005C0005D0180935C01FE01329644C0FE01E20FA2
:1005D000F31F8193919322503109398328833AC0C4
:1005E00020915A0130915B01232B41F420910201AB
:1005F0003091030130935B0120935A012091000157
:10060000309101012115310541F42DB73EB74091DC
:10061000040150910501241B350BE0915A01F09122
:100620005B01E217F307A0F42E1B3F0B28173907D5
:1006300078F0AC014E5F5F4F2417350748F04E0F3E
:100640005F1F50935B0140935A018193919302C0C5
:10065000E0E0F0E0CF01DF91CF911F910F9108957D
:10066000CF93DF93009709F481C0FC013297138286
:100670001282A0915C01B0915D01109781F42081FC
:100680003181820F931F20915A0130915B0128170D
:10069000390751F5F0935B01E0935A0167C0ED0112
:1006A00020E030E0CE17DF0740F44A815B819E01F5
:1006B00041155105F1F0EA01F5CFD383C2834081A2
:1006C0005181840F951FC817D90759F488819981E2
:1006D000840F951F0296918380838A819B819383E7
:1006E00082832115310529F4F0935D01E0935C01CB
:1006F0003DC0E901FB83EA8349915991C40FD51F9D
:10070000EC17FD0761F480819181840F951F02969B
:10071000E90199838883828193819B838A83E0E0C6
:10072000F0E012968D919C911397009719F0FD01BE
:10073000DC01F7CF8D919C9111979D012E5F3F4F6A
:10074000820F931F20915A0130915B0128173907BE
:1007500069F4309729F410925D0110925C0102C097
:1007600013821282B0935B01A0935A01DF91CF9163
:060770000895F894FFCF8C
:1007760000005E0120002E00E1080001456C2062A9
:100786006F746F6E2066756520736F6C7461646F2D
:100796002E0D0A00456C20626F746F6E20657374AF
:1007A60061207369656E646F2070756C7361646F28
:0A07B6002E0D0A000D0A0D0A0000C6
:00000001FF
