S00C00006C6162362E73726563B3
S11300000C9434000C9451000C9451000C94850011
S11300100C9451000C9451000C9451000C94510018
S11300200C9451000C9451000C9451000C94510008
S11300300C9451000C9451000C9451000C945100F8
S11300400C9451000C9451000C94B2000C94E700F1
S11300500C9451000C9451000C9451000C945100D8
S11300600C9451000C94510011241FBECFEFD8E022
S1130070DEBFCDBF11E0A0E0B1E0E2ECF7E002C0EA
S113008005900D92A434B107D9F721E0A4E4B1E0BE
S113009001C01D92A236B207E1F70E9453000C94EE
S11300A0DF030C940000CF93DF9300D000D01F92A5
S11300B0CDB7DEB7F8942798E8E6F0E08081816058
S11300C08083EBE6F0E0808180688083259A85E078
S11300D0E7E0F1E0DE01119601900D928A95E1F7D7
S11300E049815A816B817C818D810E94AB0165E0DD
S11300F070E084E491E00E94430264E170E080E5F2
S113010091E00E9443027894FFCF1F920F920FB6A2
S11301100F9211242F933F934F935F936F937F9389
S11301208F939F93AF93BF93EF93FF931F9B05C050
S11301308CE091E00E94340204C084E291E00E94C9
S11301403402FF91EF91BF91AF919F918F917F9175
S11301506F915F914F913F912F910F900FBE0F9030
S11301601F9018951F920F920FB60F9211242F9380
S11301703F934F935F936F937F938F939F93AF932B
S1130180BF93EF93FF936091C600809106016813BB
S113019009C0E1ECF0E080818F7780838081806208
S11301A0808304C084E491E00E945A02FF91EF919D
S11301B0BF91AF919F918F917F916F915F914F917B
S11301C03F912F910F900FBE0F901F9018951F9283
S11301D00F920FB60F9211242F933F934F935F9377
S11301E06F937F938F939F93AF93BF93CF93DF933B
S11301F0EF93FF9380915C0190915D010196909340
S11302005D0180935C0180915C0190915D01019797
S1130210B9F5E4E4F1E02481358182819381821788
S1130220930724F012161306C4F02AC018161906F0
S11302303CF5C0E0D0E084E491E00E947502682FB0
S113024080E591E00E945A022196809146019091A6
S11302504701C817D9077CF313C0C0E0D0E084E499
S113026091E00E947502682F80E591E00E945A0295
S113027021968091480190914901C817D9077CF3D0
S1130280E0E5F1E080859185268137818217930727
S1130290F1F4892BE1F065E070E084E491E00E94E0
S11302A0430264E170E080E591E00E944302109211
S11302B05D0110925C018DE08093C600E1ECF0E0FA
S11302C080818F7D808380818068808331C0E0E578
S11302D0F1E0228533858281938128173907E1F47F
S11302E065E070E084E491E00E94430264E170E020
S11302F080E591E00E94430210925D0110925C013E
S11303008DE08093C600E1ECF0E080818F7D8083F6
S11303108081806880830CC080E591E00E94750232
S11303208093C6008FE19EE40197F1F700C00000BE
S1130330FF91EF91DF91CF91BF91AF919F918F91F9
S11303407F916F915F914F913F912F910F900FBECD
S11303500F901F901895CF93DF9300D000D01F9279
S1130360CDB7DEB749835A836B837C838D83298120
S11303703A8140E050E060E472E48FE090E00E9453
S11303809C02215031093093C5002093C4008B8115
S1130390863079F018F4853031F01CC0873079F05C
S11303A0883099F017C0E2ECF0E08081897F808387
S11303B011C0E2ECF0E08081826080830BC0E2EC4B
S11303C0F0E080818460808305C0E2ECF0E080810D
S11303D0866080838C81813051F018F0823069F01E
S11303E011C0E2ECF0E080818F7C80830BC0E2ECF2
S11303F0F0E080818063808305C0E2ECF0E08081DE
S1130400806280838D81813019F0823039F00BC095
S1130410E2ECF0E08081877F808305C0E2ECF0E0CD
S1130420808188608083E1ECF0E080818861808352
S11304308081806A80832FEF81EE94E02150804098
S11304409040E1F700C000000F900F900F900F90C4
S11304500F90DF91CF910895E0ECF0E0908195FF4B
S1130460FDCF8093C6000895CF93DF93EC0188817C
S1130470882331F021960E942C0289918111FBCFAF
S1130480DF91CF910895CF93DF93EC017B836A834F
S11304901F821E82198618861D821C821B861A865C
S11304A0CB01880F991F0E94BE0299838883DF9134
S11304B0CF910895FC01868197819C012F5F3F4F66
S11304C0428153812417350714F020E030E0408145
S11304D05181DA01A80FB91F6C9337832683848175
S11304E095810196958384830895FC01428153810B
S11304F0848195814817590734F4868197819187BF
S1130500808715821482808591859C012F5F3F4FDF
S11305102417350714F020E030E040815181DA01DE
S1130520A80FB91F8C9131872087228533852F5FCF
S11305303F4F338722870895A1E21A2EAA1BBB1BC3
S1130540FD010DC0AA1FBB1FEE1FFF1FA217B3079B
S1130550E407F50720F0A21BB30BE40BF50B661FB1
S1130560771F881F991F1A9469F760957095809575
S113057090959B01AC01BD01CF0108950F931F938A
S1130580CF93DF938230910510F482E090E0E09104
S11305906001F091610120E030E0A0E0B0E030972C
S11305A019F1408151810281138148175907C8F01C
S11305B08417950769F4109731F012960C931297EB
S11305C013961C9327C0009360011093610122C00D
S11305D02115310519F04217530718F49A01BD018A
S11305E0EF01DF01F801DBCF21153105F9F0281BFC
S11305F0390B2430310580F48A819B8161157105A2
S113060021F0FB019383828304C090936101809362
S11306106001FE01329644C0FE01E20FF31F819394
S1130620919322503109398328833AC020915E0185
S113063030915F01232B41F4209102013091030199
S113064030935F0120935E012091000130910101FC
S11306502115310541F42DB73EB740910401509165
S11306600501241B350BE0915E01F0915F01E21757
S1130670F307A0F42E1B3F0B2817390778F0AC01C1
S11306804E5F5F4F2417350748F04E0F5F1F50939E
S11306905F0140935E018193919302C0E0E0F0E03A
S11306A0CF01DF91CF911F910F910895CF93DF93E5
S11306B0009709F481C0FC01329713821282A09141
S11306C06001B0916101109781F420813181820F22
S11306D0931F20915E0130915F012817390751F56E
S11306E0F0935F01E0935E0167C0ED0120E030E02C
S11306F0CE17DF0740F44A815B819E014115510505
S1130700F1F0EA01F5CFD383C28340815181840F94
S1130710951FC817D90759F488819981840F951FAB
S11307200296918380838A819B819383828321159E
S1130730310529F4F0936101E09360013DC0E901C2
S1130740FB83EA8349915991C40FD51FEC17FD0728
S113075061F480819181840F951F0296E901998348
S11307608883828193819B838A83E0E0F0E0129600
S11307708D919C911397009719F0FD01DC01F7CF3F
S11307808D919C9111979D012E5F3F4F820F931F76
S113079020915E0130915F012817390769F4309781
S11307A029F4109261011092600102C01382128236
S11307B0B0935F01A0935E01DF91CF910895F89407
S10507C0FFCF65
S11307C20000620120002E00E1080001456C206255
S11307D26F746F6E2066756520736F6C7461646FDD
S11307E22E0D0A00456C20626F746F6E206573745F
S11307F261207369656E646F2070756C7361646FD8
S10708022E0D0A00A9
S9030000FC
