S00D00006C61625F322E7372656357
S11300000C943E000C945B000C945B000C945B001D
S11300100C945B000C945B000C945B000C945B00F0
S11300200C945B000C945B000C945B000C94BF007C
S11300300C945B000C945B000C945B000C945B00D0
S11300400C945B000C945B000C945B000C945B00C0
S11300500C945B000C945B000C945B000C945B00B0
S11300600C945B000C945B009200950098009B003C
S11300709E00A100A400A700AA00AD0011241FBE89
S1130080CFEFD8E0DEBFCDBF11E0A0E0B1E0EEE1FC
S1130090F3E002C005900D92A230B107D9F721E038
S11300A0A2E0B1E001C01D92A830B207E1F70E94BE
S11300B0B0000C948D010C940000E0E8F0E0808125
S11300C08E7F808380818D7F8083E1E8F0E0808172
S11300D08860808380818F7E80838BE990E0909319
S11300E0890080938800EFE6F0E08081826080835D
S11300F008951092850010928400E1E8F0E0808178
S11301008160808380818D7F80838081846080830F
S1130110089590E08A30910510F5FC01EC5CFF4FE6
S11301200C94780183E08BB908958FE98BB9089515
S113013085E28BB908958DE08BB9089589E98BB96F
S1130140089589E48BB9089581E48BB908958FE10A
S11301508BB9089581E08BB9089589E18BB908952D
S1130160F8948FEF8AB987B981E088B91BB80E94E7
S11301705D00789483E08BB90E947900FFCF1F92D1
S11301800F920FB60F9211242F933F934F935F93C7
S11301906F937F938F939F93AF93BF93EF93FF934B
S11301A0809107018F5F8093070180910701843656
S11301B009F069C080910501909106010196909320
S11301C00601809305011092070180910501909129
S11301D00601883E934021F4109206011092050115
S11301E040910501509106019A01ADECBCEC0E94CE
S11301F07E019695879596958795969587959C010A
S1130200220F331F880F991F880F991F880F991F7A
S1130210820F931F481B590B409304014091050121
S1130220509106019A013695279536952795ABE7A7
S1130230B4E10E947E019695879564E6689F9001DB
S1130240699F300D1124CA01821B930B9C01ADECF4
S1130250BCEC0E947E019695879596958795969518
S1130260879580930301209105013091060136950D
S1130270279536952795ABE7B4E10E947E019695C4
S113028087958093020180910001880F883019F0CE
S11302908093000103C081E08093000180910001FC
S11302A088B980910001823049F0843061F0813056
S11302B071F4809104010E94890009C080910301B6
S11302C00E94890004C0809102010E948900FF916C
S11302D0EF91BF91AF919F918F917F916F915F91BA
S11302E04F913F912F910F900FBE0F901F90189533
S11302F0EE0FFF1F0590F491E02D0994A29FB00129
S1130300B39FC001A39F700D811D1124911DB29F45
S1110310700D811D1124911D0895F894FFCFE6
S105031E0100D8
S9030000FC
