:100000000C9434000C9449000C9449000C94490061
:100010000C9449000C9449000C9449000C9449003C
:100020000C9449000C9449000C9449000C9449002C
:100030000C9449000C9449000C9449000C9449001C
:100040000C9449000C9449000C9449000C9449000C
:100050000C9449000C9449000C9449000C944900FC
:100060000C9449000C94490011241FBECFEFD8E036
:10007000DEBFCDBF12E0A0E0B1E0E4EDF2E002C0EF
:1000800005900D92A434B107D9F70E944B000C944F
:1000900068010C940000CF93DF93CDB7DEB764976F
:1000A0000FB6F894DEBF0FBECDBF85E0E0E0F1E013
:1000B000DE01119601900D928A95E1F785E0E5E069
:1000C000F1E0DE01169601900D928A95E1F785E048
:1000D000EAE0F1E0DE011B9601900D928A95E1F7CE
:1000E00085E0EFE0F1E0DE01509601900D928A95F7
:1000F000E1F749815A816B817C818D810E94A60044
:1001000084E191E00E9437014E815F8168857985A5
:100110008A850E94A60087E591E00E9437014B8501
:100120005C856D857E858F850E94A60089E991E0BA
:100130000E943701488959896A897B898C890E9484
:10014000A60084EE91E00E943701FFCFCF93DF93AA
:1001500000D000D01F92CDB7DEB749835A836B839E
:100160007C838D83E2ECF0E080818F7B80838081D3
:100170008F77808329813A8140E050E060E472E427
:100180008FE090E00E944601215031093093C50074
:100190002093C4008B81863079F018F4853031F0DB
:1001A0001CC0873079F0883099F017C0E2ECF0E09D
:1001B0008081897F808311C0E2ECF0E080818260E1
:1001C00080830BC0E2ECF0E080818460808305C016
:1001D000E2ECF0E08081866080838C81813051F098
:1001E00018F0823069F011C0E2ECF0E080818F7C81
:1001F00080830BC0E2ECF0E080818063808305C0E7
:10020000E2ECF0E08081806280838D81813019F0A2
:10021000823039F00BC0E2ECF0E08081877F808390
:1002200005C0E2ECF0E0808188608083E1ECF0E0E2
:100230008081886080838081806180832FEF81EE60
:1002400094E0215080409040E1F700C000000F9002
:100250000F900F900F900F90DF91CF910895E0ECE9
:10026000F0E0908195FFFDCF8093C6000895CF9375
:10027000DF93EC018881882331F021960E942F01C1
:1002800089918111FBCFDF91CF910895A1E21A2EC0
:10029000AA1BBB1BFD010DC0AA1FBB1FEE1FFF1F2A
:1002A000A217B307E407F50720F0A21BB30BE40B7A
:1002B000F50B661F771F881F991F1A9469F76095C1
:1002C0007095809590959B01AC01BD01CF0108957B
:0402D000F894FFCFD0
:1002D40000E10800018025080002004B070001002E
:1002E4004B070202436F6E67726174756C617469C7
:1002F4006F6E732120596F7520617265206E6F7760
:100304002073656E64696E672074657374206D650F
:10031400737361676573206174203537363030201C
:10032400384E312E0D0A004368616E676520796F7F
:100334007572207465726D696E616C207365747476
:10034400696E677320616E642072657365742074CE
:100354006865204D435520746F20736565203936D8
:10036400303020384E320D0A0057697468207468A2
:10037400652077726F6E672073657474696E677336
:100384002C20796F752077696C6C20736565206EFD
:100394006F7468696E67206275742067696262654C
:1003A4007269736820617420313932303020374EDD
:1003B400310D0A004576656E20706172697479208A
:1003C400616E642074776F2073746F702062697437
:1003D400732068617665206C696D69746564207545
:1003E40073652E2042757420313932303020374500
:1003F4003220697320677265617420666F722061B0
:100404006E6E6F79696E672073747564656E74734C
:040414000D0A0000CD
:00000001FF
