S00D00006C61625F322E7372656357
S11300000C943E000C9450000C9450000C9450003E
S11300100C9450000C9450000C9450000C9450001C
S11300200C9450000C9450000C9450000C948A00D2
S11300300C9450000C9450000C9450000C945000FC
S11300400C9450000C9450000C9450000C945000EC
S11300500C9450000C9450000C9450000C945000DC
S11300600C9450000C945000AF00B100B300B500E4
S1130070B700B900BB00BD00BF00C10011241FBE02
S1130080CFEFD8E0DEBFCDBF21E0A0E0B1E001C0FA
S11300901D92A230B207E1F70E9480000C94D200B6
S11300A00C940000E0E8F0E080818E7F8083808102
S11300B08D7F8083E1E8F0E08081886080838081A7
S11300C08F7E808381E19AE79093890080938800F2
S11300D0EFE6F0E0808182608083089510928500CD
S11300E010928400E0E8F0E0808181608083808168
S11300F08D7F8083E1E8F0E08081846080830895CF
S1130100F8948FEF84B91BB80E94520078940E942F
S11301106E00FFCF1F920F920FB60F9211248F9390
S11301209F93EF93FF9380910001909101010196B9
S11301308A30910529F0909301018093000104C055
S11301401092010110920001E0910001F09101016F
S1130150EA30F105C0F4EC5CFF4F0C94CC008CEF5A
S113016011C080E60FC08AED0DC082EF0BC086E699
S113017009C086EB07C08EEB05C080EE03C08EEF8E
S113018001C086EE8BB9FF91EF919F918F910F90F3
S11301900FBE0F901F901895EE0FFF1F0590F4915E
S10B01A0E02D0994F894FFCF4F
S9030000FC
